{
  "contractName": "DecentralBank",
  "abi": [
    {
      "inputs": [
        {
          "internalType": "contract RWD",
          "name": "_rwd",
          "type": "address"
        },
        {
          "internalType": "contract Tether",
          "name": "_tether",
          "type": "address"
        }
      ],
      "stateMutability": "nonpayable",
      "type": "constructor"
    },
    {
      "inputs": [
        {
          "internalType": "address",
          "name": "",
          "type": "address"
        }
      ],
      "name": "hasStaked",
      "outputs": [
        {
          "internalType": "bool",
          "name": "",
          "type": "bool"
        }
      ],
      "stateMutability": "view",
      "type": "function",
      "constant": true
    },
    {
      "inputs": [
        {
          "internalType": "address",
          "name": "",
          "type": "address"
        }
      ],
      "name": "isStaked",
      "outputs": [
        {
          "internalType": "bool",
          "name": "",
          "type": "bool"
        }
      ],
      "stateMutability": "view",
      "type": "function",
      "constant": true
    },
    {
      "inputs": [],
      "name": "name",
      "outputs": [
        {
          "internalType": "string",
          "name": "",
          "type": "string"
        }
      ],
      "stateMutability": "view",
      "type": "function",
      "constant": true
    },
    {
      "inputs": [],
      "name": "owner",
      "outputs": [
        {
          "internalType": "address",
          "name": "",
          "type": "address"
        }
      ],
      "stateMutability": "view",
      "type": "function",
      "constant": true
    },
    {
      "inputs": [],
      "name": "rwd",
      "outputs": [
        {
          "internalType": "contract RWD",
          "name": "",
          "type": "address"
        }
      ],
      "stateMutability": "view",
      "type": "function",
      "constant": true
    },
    {
      "inputs": [
        {
          "internalType": "uint256",
          "name": "",
          "type": "uint256"
        }
      ],
      "name": "stakers",
      "outputs": [
        {
          "internalType": "address",
          "name": "",
          "type": "address"
        }
      ],
      "stateMutability": "view",
      "type": "function",
      "constant": true
    },
    {
      "inputs": [
        {
          "internalType": "address",
          "name": "",
          "type": "address"
        }
      ],
      "name": "stakingBalance",
      "outputs": [
        {
          "internalType": "uint256",
          "name": "",
          "type": "uint256"
        }
      ],
      "stateMutability": "view",
      "type": "function",
      "constant": true
    },
    {
      "inputs": [],
      "name": "tether",
      "outputs": [
        {
          "internalType": "contract Tether",
          "name": "",
          "type": "address"
        }
      ],
      "stateMutability": "view",
      "type": "function",
      "constant": true
    }
  ],
  "bytecode": "0x60806040526040518060400160405280600e81526020017f446563656e7472616c2042616e6b000000000000000000000000000000000000815250600090805190602001906200005192919062000150565b503480156200005f57600080fd5b5060405162000a4638038062000a4683398181016040528101906200008591906200022e565b80600260006101000a81548173ffffffffffffffffffffffffffffffffffffffff021916908373ffffffffffffffffffffffffffffffffffffffff16021790555081600360006101000a81548173ffffffffffffffffffffffffffffffffffffffff021916908373ffffffffffffffffffffffffffffffffffffffff16021790555033600160006101000a81548173ffffffffffffffffffffffffffffffffffffffff021916908373ffffffffffffffffffffffffffffffffffffffff16021790555050506200036f565b8280546200015e90620002d1565b90600052602060002090601f016020900481019282620001825760008555620001ce565b82601f106200019d57805160ff1916838001178555620001ce565b82800160010185558215620001ce579182015b82811115620001cd578251825591602001919060010190620001b0565b5b509050620001dd9190620001e1565b5090565b5b80821115620001fc576000816000905550600101620001e2565b5090565b60008151905062000211816200033b565b92915050565b600081519050620002288162000355565b92915050565b6000806040838503121562000248576200024762000336565b5b6000620002588582860162000200565b92505060206200026b8582860162000217565b9150509250929050565b60006200028282620002b1565b9050919050565b6000620002968262000275565b9050919050565b6000620002aa8262000275565b9050919050565b600073ffffffffffffffffffffffffffffffffffffffff82169050919050565b60006002820490506001821680620002ea57607f821691505b6020821081141562000301576200030062000307565b5b50919050565b7f4e487b7100000000000000000000000000000000000000000000000000000000600052602260045260246000fd5b600080fd5b620003468162000289565b81146200035257600080fd5b50565b62000360816200029d565b81146200036c57600080fd5b50565b6106c7806200037f6000396000f3fe608060405234801561001057600080fd5b50600436106100885760003560e01c80636177fd181161005b5780636177fd18146101175780638da5cb5b14610147578063c93c8f3414610165578063fd5e6dd11461019557610088565b806306fdde031461008d5780631a8972d3146100ab57806345bc78ab146100c95780635efc071a146100f9575b600080fd5b6100956101c5565b6040516100a291906104d0565b60405180910390f35b6100b3610253565b6040516100c0919061049a565b60405180910390f35b6100e360048036038101906100de9190610386565b610279565b6040516100f091906104f2565b60405180910390f35b610101610291565b60405161010e91906104b5565b60405180910390f35b610131600480360381019061012c9190610386565b6102b7565b60405161013e919061047f565b60405180910390f35b61014f6102d7565b60405161015c9190610464565b60405180910390f35b61017f600480360381019061017a9190610386565b6102fd565b60405161018c919061047f565b60405180910390f35b6101af60048036038101906101aa91906103b3565b61031d565b6040516101bc9190610464565b60405180910390f35b600080546101d2906105ec565b80601f01602080910402602001604051908101604052809291908181526020018280546101fe906105ec565b801561024b5780601f106102205761010080835404028352916020019161024b565b820191906000526020600020905b81548152906001019060200180831161022e57829003601f168201915b505050505081565b600360009054906101000a900473ffffffffffffffffffffffffffffffffffffffff1681565b60056020528060005260406000206000915090505481565b600260009054906101000a900473ffffffffffffffffffffffffffffffffffffffff1681565b60076020528060005260406000206000915054906101000a900460ff1681565b600160009054906101000a900473ffffffffffffffffffffffffffffffffffffffff1681565b60066020528060005260406000206000915054906101000a900460ff1681565b6004818154811061032d57600080fd5b906000526020600020016000915054906101000a900473ffffffffffffffffffffffffffffffffffffffff1681565b60008135905061036b81610663565b92915050565b6000813590506103808161067a565b92915050565b60006020828403121561039c5761039b61064d565b5b60006103aa8482850161035c565b91505092915050565b6000602082840312156103c9576103c861064d565b5b60006103d784828501610371565b91505092915050565b6103e981610529565b82525050565b6103f88161053b565b82525050565b61040781610571565b82525050565b61041681610583565b82525050565b60006104278261050d565b6104318185610518565b93506104418185602086016105b9565b61044a81610652565b840191505092915050565b61045e81610567565b82525050565b600060208201905061047960008301846103e0565b92915050565b600060208201905061049460008301846103ef565b92915050565b60006020820190506104af60008301846103fe565b92915050565b60006020820190506104ca600083018461040d565b92915050565b600060208201905081810360008301526104ea818461041c565b905092915050565b60006020820190506105076000830184610455565b92915050565b600081519050919050565b600082825260208201905092915050565b600061053482610547565b9050919050565b60008115159050919050565b600073ffffffffffffffffffffffffffffffffffffffff82169050919050565b6000819050919050565b600061057c82610595565b9050919050565b600061058e82610595565b9050919050565b60006105a0826105a7565b9050919050565b60006105b282610547565b9050919050565b60005b838110156105d75780820151818401526020810190506105bc565b838111156105e6576000848401525b50505050565b6000600282049050600182168061060457607f821691505b602082108114156106185761061761061e565b5b50919050565b7f4e487b7100000000000000000000000000000000000000000000000000000000600052602260045260246000fd5b600080fd5b6000601f19601f8301169050919050565b61066c81610529565b811461067757600080fd5b50565b61068381610567565b811461068e57600080fd5b5056fea26469706673582212203a4e2ce2da7ec736deb931238d6d54e4f75d85623725f20be07a370ff0ac6a7164736f6c63430008070033",
  "immutableReferences": {},
  "source": "// SPDX-License-Identifier: MIT\npragma solidity ^0.8.4;\n\nimport './Tether.sol';\nimport './RWD.sol';\n\ncontract DecentralBank {\n    string public name= 'Decentral Bank';\n    address public owner;\n    Tether public tether;\n    RWD public  rwd;\n\n    address[] public stakers;\n    mapping(address => uint) public stakingBalance;\n    mapping(address => bool) public hasStaked;\n    mapping(address => bool) public isStaked;\n\n\n    constructor(RWD _rwd, Tether _tether){\n        tether=_tether;\n        rwd= _rwd;\n        owner=msg.sender;\n    }\n\n}",
  "sourcePath": "/home/abdullah/ethereum/yield-farming-ethereum/defi-staking-app-starter/src/contracts/DecentralBank.sol",
  "compiler": {
    "name": "solc",
    "version": "0.8.7+commit.e28d00a7.Emscripten.clang"
  },
  "schemaVersion": "3.4.11",
  "updatedAt": "2022-11-29T11:35:58.548Z",
  "networkType": "ethereum",
  "devdoc": {
    "kind": "dev",
    "methods": {},
    "version": 1
  },
  "userdoc": {
    "kind": "user",
    "methods": {},
    "version": 1
  }
}