{
  "contractName": "DecentralBank",
  "abi": [
    {
      "inputs": [
        {
          "internalType": "contract RWD",
          "name": "_rwd",
          "type": "address"
        },
        {
          "internalType": "contract Tether",
          "name": "_tether",
          "type": "address"
        }
      ],
      "stateMutability": "nonpayable",
      "type": "constructor"
    },
    {
      "inputs": [
        {
          "internalType": "address",
          "name": "",
          "type": "address"
        }
      ],
      "name": "hasStaked",
      "outputs": [
        {
          "internalType": "bool",
          "name": "",
          "type": "bool"
        }
      ],
      "stateMutability": "view",
      "type": "function",
      "constant": true
    },
    {
      "inputs": [
        {
          "internalType": "address",
          "name": "",
          "type": "address"
        }
      ],
      "name": "isStaked",
      "outputs": [
        {
          "internalType": "bool",
          "name": "",
          "type": "bool"
        }
      ],
      "stateMutability": "view",
      "type": "function",
      "constant": true
    },
    {
      "inputs": [],
      "name": "name",
      "outputs": [
        {
          "internalType": "string",
          "name": "",
          "type": "string"
        }
      ],
      "stateMutability": "view",
      "type": "function",
      "constant": true
    },
    {
      "inputs": [],
      "name": "owner",
      "outputs": [
        {
          "internalType": "address",
          "name": "",
          "type": "address"
        }
      ],
      "stateMutability": "view",
      "type": "function",
      "constant": true
    },
    {
      "inputs": [],
      "name": "rwd",
      "outputs": [
        {
          "internalType": "contract RWD",
          "name": "",
          "type": "address"
        }
      ],
      "stateMutability": "view",
      "type": "function",
      "constant": true
    },
    {
      "inputs": [
        {
          "internalType": "uint256",
          "name": "",
          "type": "uint256"
        }
      ],
      "name": "stakers",
      "outputs": [
        {
          "internalType": "address",
          "name": "",
          "type": "address"
        }
      ],
      "stateMutability": "view",
      "type": "function",
      "constant": true
    },
    {
      "inputs": [
        {
          "internalType": "address",
          "name": "",
          "type": "address"
        }
      ],
      "name": "stakingBalance",
      "outputs": [
        {
          "internalType": "uint256",
          "name": "",
          "type": "uint256"
        }
      ],
      "stateMutability": "view",
      "type": "function",
      "constant": true
    },
    {
      "inputs": [],
      "name": "tether",
      "outputs": [
        {
          "internalType": "contract Tether",
          "name": "",
          "type": "address"
        }
      ],
      "stateMutability": "view",
      "type": "function",
      "constant": true
    },
    {
      "inputs": [
        {
          "internalType": "uint256",
          "name": "_amount",
          "type": "uint256"
        }
      ],
      "name": "depositTokens",
      "outputs": [],
      "stateMutability": "nonpayable",
      "type": "function"
    },
    {
      "inputs": [],
      "name": "issueTokens",
      "outputs": [],
      "stateMutability": "nonpayable",
      "type": "function"
    },
    {
      "inputs": [],
      "name": "unstakeTokens",
      "outputs": [],
      "stateMutability": "nonpayable",
      "type": "function"
    }
  ],
  "bytecode": "0x60806040526040518060400160405280600e81526020017f446563656e7472616c2042616e6b000000000000000000000000000000000000815250600090805190602001906200005192919062000150565b503480156200005f57600080fd5b50604051620014a6380380620014a683398181016040528101906200008591906200022e565b80600260006101000a81548173ffffffffffffffffffffffffffffffffffffffff021916908373ffffffffffffffffffffffffffffffffffffffff16021790555081600360006101000a81548173ffffffffffffffffffffffffffffffffffffffff021916908373ffffffffffffffffffffffffffffffffffffffff16021790555033600160006101000a81548173ffffffffffffffffffffffffffffffffffffffff021916908373ffffffffffffffffffffffffffffffffffffffff16021790555050506200036f565b8280546200015e90620002d1565b90600052602060002090601f016020900481019282620001825760008555620001ce565b82601f106200019d57805160ff1916838001178555620001ce565b82800160010185558215620001ce579182015b82811115620001cd578251825591602001919060010190620001b0565b5b509050620001dd9190620001e1565b5090565b5b80821115620001fc576000816000905550600101620001e2565b5090565b60008151905062000211816200033b565b92915050565b600081519050620002288162000355565b92915050565b6000806040838503121562000248576200024762000336565b5b6000620002588582860162000200565b92505060206200026b8582860162000217565b9150509250929050565b60006200028282620002b1565b9050919050565b6000620002968262000275565b9050919050565b6000620002aa8262000275565b9050919050565b600073ffffffffffffffffffffffffffffffffffffffff82169050919050565b60006002820490506001821680620002ea57607f821691505b6020821081141562000301576200030062000307565b5b50919050565b7f4e487b7100000000000000000000000000000000000000000000000000000000600052602260045260246000fd5b600080fd5b620003468162000289565b81146200035257600080fd5b50565b62000360816200029d565b81146200036c57600080fd5b50565b611127806200037f6000396000f3fe608060405234801561001057600080fd5b50600436106100a95760003560e01c80636177fd18116100715780636177fd18146101425780638da5cb5b14610172578063a5ce413b14610190578063c93c8f341461019a578063dd49756e146101ca578063fd5e6dd1146101e6576100a9565b806306fdde03146100ae5780631a8972d3146100cc57806345bc78ab146100ea5780635efc071a1461011a57806360ab585214610138575b600080fd5b6100b6610216565b6040516100c39190610cbb565b60405180910390f35b6100d46102a4565b6040516100e19190610c85565b60405180910390f35b61010460048036038101906100ff9190610a7b565b6102ca565b6040516101119190610d3d565b60405180910390f35b6101226102e2565b60405161012f9190610ca0565b60405180910390f35b610140610308565b005b61015c60048036038101906101579190610a7b565b61050d565b6040516101699190610c6a565b60405180910390f35b61017a61052d565b6040516101879190610bef565b60405180910390f35b610198610553565b005b6101b460048036038101906101af9190610a7b565b61072a565b6040516101c19190610c6a565b60405180910390f35b6101e460048036038101906101df9190610ad5565b61074a565b005b61020060048036038101906101fb9190610ad5565b6109fd565b60405161020d9190610bef565b60405180910390f35b6000805461022390610ebe565b80601f016020809104026020016040519081016040528092919081815260200182805461024f90610ebe565b801561029c5780601f106102715761010080835404028352916020019161029c565b820191906000526020600020905b81548152906001019060200180831161027f57829003601f168201915b505050505081565b600360009054906101000a900473ffffffffffffffffffffffffffffffffffffffff1681565b60056020528060005260406000206000915090505481565b600260009054906101000a900473ffffffffffffffffffffffffffffffffffffffff1681565b600160009054906101000a900473ffffffffffffffffffffffffffffffffffffffff1673ffffffffffffffffffffffffffffffffffffffff163373ffffffffffffffffffffffffffffffffffffffff1614610398576040517f08c379a000000000000000000000000000000000000000000000000000000000815260040161038f90610cdd565b60405180910390fd5b60005b60048054905081101561050a576000600482815481106103be576103bd610fc6565b5b9060005260206000200160009054906101000a900473ffffffffffffffffffffffffffffffffffffffff16905060006009600560008473ffffffffffffffffffffffffffffffffffffffff1673ffffffffffffffffffffffffffffffffffffffff168152602001908152602001600020546104399190610dca565b905060008111156104f557600360009054906101000a900473ffffffffffffffffffffffffffffffffffffffff1673ffffffffffffffffffffffffffffffffffffffff1663a9059cbb83836040518363ffffffff1660e01b81526004016104a1929190610c41565b602060405180830381600087803b1580156104bb57600080fd5b505af11580156104cf573d6000803e3d6000fd5b505050506040513d601f19601f820116820180604052508101906104f39190610aa8565b505b5050808061050290610ef0565b91505061039b565b50565b60076020528060005260406000206000915054906101000a900460ff1681565b600160009054906101000a900473ffffffffffffffffffffffffffffffffffffffff1681565b6000600560003373ffffffffffffffffffffffffffffffffffffffff1673ffffffffffffffffffffffffffffffffffffffff168152602001908152602001600020549050600081116105da576040517f08c379a00000000000000000000000000000000000000000000000000000000081526004016105d190610d1d565b60405180910390fd5b600260009054906101000a900473ffffffffffffffffffffffffffffffffffffffff1673ffffffffffffffffffffffffffffffffffffffff1663a9059cbb33836040518363ffffffff1660e01b8152600401610637929190610c41565b602060405180830381600087803b15801561065157600080fd5b505af1158015610665573d6000803e3d6000fd5b505050506040513d601f19601f820116820180604052508101906106899190610aa8565b506000600560003373ffffffffffffffffffffffffffffffffffffffff1673ffffffffffffffffffffffffffffffffffffffff168152602001908152602001600020819055506000600760003373ffffffffffffffffffffffffffffffffffffffff1673ffffffffffffffffffffffffffffffffffffffff16815260200190815260200160002060006101000a81548160ff02191690831515021790555050565b60066020528060005260406000206000915054906101000a900460ff1681565b6000811161078d576040517f08c379a000000000000000000000000000000000000000000000000000000000815260040161078490610cfd565b60405180910390fd5b600260009054906101000a900473ffffffffffffffffffffffffffffffffffffffff1673ffffffffffffffffffffffffffffffffffffffff166323b872dd3330846040518463ffffffff1660e01b81526004016107ec93929190610c0a565b602060405180830381600087803b15801561080657600080fd5b505af115801561081a573d6000803e3d6000fd5b505050506040513d601f19601f8201168201806040525081019061083e9190610aa8565b5080600560003373ffffffffffffffffffffffffffffffffffffffff1673ffffffffffffffffffffffffffffffffffffffff168152602001908152602001600020600082825461088e9190610d74565b92505081905550600660003373ffffffffffffffffffffffffffffffffffffffff1673ffffffffffffffffffffffffffffffffffffffff16815260200190815260200160002060009054906101000a900460ff1661094a576004339080600181540180825580915050600190039060005260206000200160009091909190916101000a81548173ffffffffffffffffffffffffffffffffffffffff021916908373ffffffffffffffffffffffffffffffffffffffff1602179055505b6001600760003373ffffffffffffffffffffffffffffffffffffffff1673ffffffffffffffffffffffffffffffffffffffff16815260200190815260200160002060006101000a81548160ff0219169083151502179055506001600660003373ffffffffffffffffffffffffffffffffffffffff1673ffffffffffffffffffffffffffffffffffffffff16815260200190815260200160002060006101000a81548160ff02191690831515021790555050565b60048181548110610a0d57600080fd5b906000526020600020016000915054906101000a900473ffffffffffffffffffffffffffffffffffffffff1681565b600081359050610a4b816110ac565b92915050565b600081519050610a60816110c3565b92915050565b600081359050610a75816110da565b92915050565b600060208284031215610a9157610a90610ff5565b5b6000610a9f84828501610a3c565b91505092915050565b600060208284031215610abe57610abd610ff5565b5b6000610acc84828501610a51565b91505092915050565b600060208284031215610aeb57610aea610ff5565b5b6000610af984828501610a66565b91505092915050565b610b0b81610dfb565b82525050565b610b1a81610e0d565b82525050565b610b2981610e43565b82525050565b610b3881610e55565b82525050565b6000610b4982610d58565b610b538185610d63565b9350610b63818560208601610e8b565b610b6c81610ffa565b840191505092915050565b6000610b84601483610d63565b9150610b8f8261100b565b602082019050919050565b6000610ba7601683610d63565b9150610bb282611034565b602082019050919050565b6000610bca602383610d63565b9150610bd58261105d565b604082019050919050565b610be981610e39565b82525050565b6000602082019050610c046000830184610b02565b92915050565b6000606082019050610c1f6000830186610b02565b610c2c6020830185610b02565b610c396040830184610be0565b949350505050565b6000604082019050610c566000830185610b02565b610c636020830184610be0565b9392505050565b6000602082019050610c7f6000830184610b11565b92915050565b6000602082019050610c9a6000830184610b20565b92915050565b6000602082019050610cb56000830184610b2f565b92915050565b60006020820190508181036000830152610cd58184610b3e565b905092915050565b60006020820190508181036000830152610cf681610b77565b9050919050565b60006020820190508181036000830152610d1681610b9a565b9050919050565b60006020820190508181036000830152610d3681610bbd565b9050919050565b6000602082019050610d526000830184610be0565b92915050565b600081519050919050565b600082825260208201905092915050565b6000610d7f82610e39565b9150610d8a83610e39565b9250827fffffffffffffffffffffffffffffffffffffffffffffffffffffffffffffffff03821115610dbf57610dbe610f39565b5b828201905092915050565b6000610dd582610e39565b9150610de083610e39565b925082610df057610def610f68565b5b828204905092915050565b6000610e0682610e19565b9050919050565b60008115159050919050565b600073ffffffffffffffffffffffffffffffffffffffff82169050919050565b6000819050919050565b6000610e4e82610e67565b9050919050565b6000610e6082610e67565b9050919050565b6000610e7282610e79565b9050919050565b6000610e8482610e19565b9050919050565b60005b83811015610ea9578082015181840152602081019050610e8e565b83811115610eb8576000848401525b50505050565b60006002820490506001821680610ed657607f821691505b60208210811415610eea57610ee9610f97565b5b50919050565b6000610efb82610e39565b91507fffffffffffffffffffffffffffffffffffffffffffffffffffffffffffffffff821415610f2e57610f2d610f39565b5b600182019050919050565b7f4e487b7100000000000000000000000000000000000000000000000000000000600052601160045260246000fd5b7f4e487b7100000000000000000000000000000000000000000000000000000000600052601260045260246000fd5b7f4e487b7100000000000000000000000000000000000000000000000000000000600052602260045260246000fd5b7f4e487b7100000000000000000000000000000000000000000000000000000000600052603260045260246000fd5b600080fd5b6000601f19601f8301169050919050565b7f43616c6c6572206973206e6f74206f776e65722e000000000000000000000000600082015250565b7f416d6f756e742063616e6e6f74206265207a65726f2e00000000000000000000600082015250565b7f5374616b696e672062616c616e63652063616e6e6f74206265206c657373207a60008201527f65726f0000000000000000000000000000000000000000000000000000000000602082015250565b6110b581610dfb565b81146110c057600080fd5b50565b6110cc81610e0d565b81146110d757600080fd5b50565b6110e381610e39565b81146110ee57600080fd5b5056fea264697066735822122091980741c0dd65d1661dbbe2a9e41821cc24c4bdfc5a9c6c10b01f5819eaf6a064736f6c63430008070033",
  "immutableReferences": {},
  "source": "// SPDX-License-Identifier: MIT\npragma solidity ^0.8.4;\n\nimport './Tether.sol';\nimport './RWD.sol';\n\ncontract DecentralBank {\n    string public name= 'Decentral Bank';\n    address public owner;\n    Tether public tether;\n    RWD public  rwd;\n\n    // list of all stakers and their associated records\n    address[] public stakers;\n    mapping(address => uint) public stakingBalance;\n    mapping(address => bool) public hasStaked;\n    mapping(address => bool) public isStaked;\n\n\n    constructor(RWD _rwd, Tether _tether){\n        tether=_tether;\n        rwd= _rwd;\n        owner=msg.sender;\n    }\n\n    //staking function\n    function depositTokens(uint _amount) public{\n        require(_amount > 0 , \"Amount cannot be zero.\");\n        //transfer tether token to this contract for staking\n        tether.transferFrom(msg.sender, address(this), _amount);\n        stakingBalance[msg.sender] += _amount;\n        \n        if(!hasStaked[msg.sender]){\n            stakers.push(msg.sender);\n        }\n\n        isStaked[msg.sender]=true;\n        hasStaked[msg.sender]=true;\n    }\n\n    // issue RWD token to stakers\n    function issueTokens() public{\n        require(msg.sender == owner,\"Caller is not owner.\");\n\n        for(uint i=0; i<stakers.length; i++){\n            address recipient = stakers[i];\n            uint balance = stakingBalance[recipient] / 9; // giv ethe 9% RWD token of their stake token\n            if(balance > 0){\n                rwd.transfer(recipient, balance);\n            }\n        }\n    }\n\n    // unstake the Tokens\n    function unstakeTokens() public{\n        uint balance = stakingBalance[msg.sender];\n        require(balance > 0, \"Staking balance cannot be less zero\");\n        tether.transfer(msg.sender, balance);\n        stakingBalance[msg.sender] = 0;\n        isStaked[msg.sender] = false;\n    }\n}",
  "sourcePath": "/home/abdullah/ethereum/yield-farming-ethereum/defi-staking-app/src/contracts/DecentralBank.sol",
  "compiler": {
    "name": "solc",
    "version": "0.8.7+commit.e28d00a7.Emscripten.clang"
  },
  "schemaVersion": "3.4.11",
  "updatedAt": "2022-12-01T13:01:06.968Z",
  "networkType": "ethereum",
  "devdoc": {
    "kind": "dev",
    "methods": {},
    "version": 1
  },
  "userdoc": {
    "kind": "user",
    "methods": {},
    "version": 1
  }
}