{
  "contractName": "Migrations",
  "abi": [
    {
      "inputs": [],
      "stateMutability": "nonpayable",
      "type": "constructor"
    },
    {
      "inputs": [],
      "name": "last_completed_migration",
      "outputs": [
        {
          "internalType": "uint256",
          "name": "",
          "type": "uint256"
        }
      ],
      "stateMutability": "view",
      "type": "function",
      "constant": true
    },
    {
      "inputs": [],
      "name": "owner",
      "outputs": [
        {
          "internalType": "address",
          "name": "",
          "type": "address"
        }
      ],
      "stateMutability": "view",
      "type": "function",
      "constant": true
    },
    {
      "inputs": [
        {
          "internalType": "address",
          "name": "_address",
          "type": "address"
        }
      ],
      "name": "setOwner",
      "outputs": [],
      "stateMutability": "nonpayable",
      "type": "function"
    },
    {
      "inputs": [
        {
          "internalType": "uint256",
          "name": "completed",
          "type": "uint256"
        }
      ],
      "name": "setCompleted",
      "outputs": [],
      "stateMutability": "nonpayable",
      "type": "function"
    },
    {
      "inputs": [
        {
          "internalType": "address",
          "name": "new_address",
          "type": "address"
        }
      ],
      "name": "upgrade",
      "outputs": [],
      "stateMutability": "nonpayable",
      "type": "function"
    }
  ],
  "bytecode": "0x608060405234801561001057600080fd5b50336000806101000a81548173ffffffffffffffffffffffffffffffffffffffff021916908373ffffffffffffffffffffffffffffffffffffffff1602179055506104de806100606000396000f3fe608060405234801561001057600080fd5b50600436106100575760003560e01c80630900f0101461005c57806313af403514610078578063445df0ac146100945780638da5cb5b146100b2578063fdacd576146100d0575b600080fd5b6100766004803603810190610071919061038b565b6100ec565b005b610092600480360381019061008d919061038b565b61023a565b005b61009c6102d5565b6040516100a9919061041e565b60405180910390f35b6100ba6102db565b6040516100c79190610403565b60405180910390f35b6100ea60048036038101906100e591906103b8565b6102ff565b005b60008054906101000a900473ffffffffffffffffffffffffffffffffffffffff1673ffffffffffffffffffffffffffffffffffffffff163373ffffffffffffffffffffffffffffffffffffffff161461014457600080fd5b306000806101000a81548173ffffffffffffffffffffffffffffffffffffffff021916908373ffffffffffffffffffffffffffffffffffffffff16021790555060008190508073ffffffffffffffffffffffffffffffffffffffff1663fdacd5766001546040518263ffffffff1660e01b81526004016101c4919061041e565b600060405180830381600087803b1580156101de57600080fd5b505af11580156101f2573d6000803e3d6000fd5b50505050336000806101000a81548173ffffffffffffffffffffffffffffffffffffffff021916908373ffffffffffffffffffffffffffffffffffffffff1602179055505050565b60008054906101000a900473ffffffffffffffffffffffffffffffffffffffff1673ffffffffffffffffffffffffffffffffffffffff163373ffffffffffffffffffffffffffffffffffffffff161461029257600080fd5b806000806101000a81548173ffffffffffffffffffffffffffffffffffffffff021916908373ffffffffffffffffffffffffffffffffffffffff16021790555050565b60015481565b60008054906101000a900473ffffffffffffffffffffffffffffffffffffffff1681565b60008054906101000a900473ffffffffffffffffffffffffffffffffffffffff1673ffffffffffffffffffffffffffffffffffffffff163373ffffffffffffffffffffffffffffffffffffffff161461035757600080fd5b8060018190555050565b6000813590506103708161047a565b92915050565b60008135905061038581610491565b92915050565b6000602082840312156103a1576103a0610475565b5b60006103af84828501610361565b91505092915050565b6000602082840312156103ce576103cd610475565b5b60006103dc84828501610376565b91505092915050565b6103ee81610439565b82525050565b6103fd8161046b565b82525050565b600060208201905061041860008301846103e5565b92915050565b600060208201905061043360008301846103f4565b92915050565b60006104448261044b565b9050919050565b600073ffffffffffffffffffffffffffffffffffffffff82169050919050565b6000819050919050565b600080fd5b61048381610439565b811461048e57600080fd5b50565b61049a8161046b565b81146104a557600080fd5b5056fea264697066735822122073969d51453b8cf20f4452c672feb715ac9e84884f30a9cc8401c1b8d932201564736f6c63430008070033",
  "immutableReferences": {},
  "source": "// SPDX-License-Identifier: GPL-3.0\n\npragma solidity ^0.8.7;\n\ncontract Migrations {\n    address public owner;\n    uint public last_completed_migration;\n\n    constructor() {\n        owner= msg.sender;\n    }\n\n    modifier restricted() {\n        require(msg.sender == owner);\n         _;\n    }\n    \n    function setOwner(address _address) public restricted{\n        owner = _address;\n    }\n\n    function setCompleted(uint completed) public restricted {\n        last_completed_migration = completed;\n    }\n\n    function upgrade(address new_address) public restricted {\n        owner = address(this);\n        Migrations upgraded = Migrations(new_address);\n        upgraded.setCompleted(last_completed_migration);\n        owner = msg.sender;\n    }\n}",
  "sourcePath": "/home/abdullah/ethereum/yield-farming-ethereum/defi-staking-app/src/contracts/Migrations.sol",
  "compiler": {
    "name": "solc",
    "version": "0.8.7+commit.e28d00a7.Emscripten.clang"
  },
  "schemaVersion": "3.4.11",
  "updatedAt": "2022-12-01T13:01:06.976Z",
  "networkType": "ethereum",
  "devdoc": {
    "kind": "dev",
    "methods": {},
    "version": 1
  },
  "userdoc": {
    "kind": "user",
    "methods": {},
    "version": 1
  }
}