{
  "contractName": "RWD",
  "abi": [
    {
      "inputs": [],
      "stateMutability": "nonpayable",
      "type": "constructor"
    },
    {
      "anonymous": false,
      "inputs": [
        {
          "indexed": true,
          "internalType": "address",
          "name": "_owner",
          "type": "address"
        },
        {
          "indexed": true,
          "internalType": "address",
          "name": "_spender",
          "type": "address"
        },
        {
          "indexed": false,
          "internalType": "uint256",
          "name": "_value",
          "type": "uint256"
        }
      ],
      "name": "Approval",
      "type": "event"
    },
    {
      "anonymous": false,
      "inputs": [
        {
          "indexed": true,
          "internalType": "address",
          "name": "_from",
          "type": "address"
        },
        {
          "indexed": true,
          "internalType": "address",
          "name": "_t0",
          "type": "address"
        },
        {
          "indexed": false,
          "internalType": "uint256",
          "name": "_value",
          "type": "uint256"
        }
      ],
      "name": "Transfer",
      "type": "event"
    },
    {
      "inputs": [
        {
          "internalType": "address",
          "name": "",
          "type": "address"
        }
      ],
      "name": "balanceOf",
      "outputs": [
        {
          "internalType": "uint256",
          "name": "",
          "type": "uint256"
        }
      ],
      "stateMutability": "view",
      "type": "function",
      "constant": true
    },
    {
      "inputs": [],
      "name": "name",
      "outputs": [
        {
          "internalType": "string",
          "name": "",
          "type": "string"
        }
      ],
      "stateMutability": "view",
      "type": "function",
      "constant": true
    },
    {
      "inputs": [],
      "name": "symbol",
      "outputs": [
        {
          "internalType": "string",
          "name": "",
          "type": "string"
        }
      ],
      "stateMutability": "view",
      "type": "function",
      "constant": true
    },
    {
      "inputs": [
        {
          "internalType": "address",
          "name": "_to",
          "type": "address"
        },
        {
          "internalType": "uint256",
          "name": "_value",
          "type": "uint256"
        }
      ],
      "name": "transfer",
      "outputs": [
        {
          "internalType": "bool",
          "name": "",
          "type": "bool"
        }
      ],
      "stateMutability": "nonpayable",
      "type": "function"
    },
    {
      "inputs": [
        {
          "internalType": "address",
          "name": "_spender",
          "type": "address"
        },
        {
          "internalType": "uint256",
          "name": "_token",
          "type": "uint256"
        }
      ],
      "name": "approval",
      "outputs": [
        {
          "internalType": "bool",
          "name": "success",
          "type": "bool"
        }
      ],
      "stateMutability": "nonpayable",
      "type": "function"
    },
    {
      "inputs": [
        {
          "internalType": "address",
          "name": "_from",
          "type": "address"
        },
        {
          "internalType": "address",
          "name": "_to",
          "type": "address"
        },
        {
          "internalType": "uint256",
          "name": "_token",
          "type": "uint256"
        }
      ],
      "name": "transferFrom",
      "outputs": [
        {
          "internalType": "bool",
          "name": "success",
          "type": "bool"
        }
      ],
      "stateMutability": "nonpayable",
      "type": "function"
    }
  ],
  "bytecode": "0x60806040526040518060400160405280600c81526020017f52657761726420546f6b656e0000000000000000000000000000000000000000815250600090805190602001906200005192919062000125565b506040518060400160405280600381526020017f5257440000000000000000000000000000000000000000000000000000000000815250600190805190602001906200009f92919062000125565b506a52b7d2dcc80cd2e40000006002556012600360006101000a81548160ff021916908360ff160217905550348015620000d857600080fd5b50600254600460003373ffffffffffffffffffffffffffffffffffffffff1673ffffffffffffffffffffffffffffffffffffffff168152602001908152602001600020819055506200023a565b8280546200013390620001d5565b90600052602060002090601f016020900481019282620001575760008555620001a3565b82601f106200017257805160ff1916838001178555620001a3565b82800160010185558215620001a3579182015b82811115620001a257825182559160200191906001019062000185565b5b509050620001b29190620001b6565b5090565b5b80821115620001d1576000816000905550600101620001b7565b5090565b60006002820490506001821680620001ee57607f821691505b602082108114156200020557620002046200020b565b5b50919050565b7f4e487b7100000000000000000000000000000000000000000000000000000000600052602260045260246000fd5b610d98806200024a6000396000f3fe608060405234801561001057600080fd5b50600436106100625760003560e01c806306fdde031461006757806323b872dd1461008557806370a08231146100b557806375247a58146100e557806395d89b4114610115578063a9059cbb14610133575b600080fd5b61006f610163565b60405161007c9190610a2f565b60405180910390f35b61009f600480360381019061009a91906108c1565b6101f1565b6040516100ac9190610a14565b60405180910390f35b6100cf60048036038101906100ca9190610894565b6104b1565b6040516100dc9190610ab1565b60405180910390f35b6100ff60048036038101906100fa9190610914565b6104c9565b60405161010c9190610a14565b60405180910390f35b61011d61063d565b60405161012a9190610a2f565b60405180910390f35b61014d60048036038101906101489190610914565b6106cb565b60405161015a9190610a14565b60405180910390f35b6000805461017090610bed565b80601f016020809104026020016040519081016040528092919081815260200182805461019c90610bed565b80156101e95780601f106101be576101008083540402835291602001916101e9565b820191906000526020600020905b8154815290600101906020018083116101cc57829003601f168201915b505050505081565b600080600560008673ffffffffffffffffffffffffffffffffffffffff1673ffffffffffffffffffffffffffffffffffffffff16815260200190815260200160002060003373ffffffffffffffffffffffffffffffffffffffff1673ffffffffffffffffffffffffffffffffffffffff16815260200190815260200160002054905082600460008773ffffffffffffffffffffffffffffffffffffffff1673ffffffffffffffffffffffffffffffffffffffff16815260200190815260200160002054101580156102c25750828110155b610301576040517f08c379a00000000000000000000000000000000000000000000000000000000081526004016102f890610a71565b60405180910390fd5b82600460008673ffffffffffffffffffffffffffffffffffffffff1673ffffffffffffffffffffffffffffffffffffffff16815260200190815260200160002060008282546103509190610ae8565b9250508190555082600460008773ffffffffffffffffffffffffffffffffffffffff1673ffffffffffffffffffffffffffffffffffffffff16815260200190815260200160002060008282546103a69190610b3e565b9250508190555082600560008773ffffffffffffffffffffffffffffffffffffffff1673ffffffffffffffffffffffffffffffffffffffff16815260200190815260200160002060003373ffffffffffffffffffffffffffffffffffffffff1673ffffffffffffffffffffffffffffffffffffffff16815260200190815260200160002060008282546104399190610b3e565b925050819055508373ffffffffffffffffffffffffffffffffffffffff168573ffffffffffffffffffffffffffffffffffffffff167fddf252ad1be2c89b69c2b068fc378daa952ba7f163c4a11628f55a4df523b3ef8560405161049d9190610ab1565b60405180910390a360019150509392505050565b60046020528060005260406000206000915090505481565b6000600460003373ffffffffffffffffffffffffffffffffffffffff1673ffffffffffffffffffffffffffffffffffffffff1681526020019081526020016000205482111561054d576040517f08c379a000000000000000000000000000000000000000000000000000000000815260040161054490610a91565b60405180910390fd5b81600560003373ffffffffffffffffffffffffffffffffffffffff1673ffffffffffffffffffffffffffffffffffffffff16815260200190815260200160002060008573ffffffffffffffffffffffffffffffffffffffff1673ffffffffffffffffffffffffffffffffffffffff168152602001908152602001600020819055508273ffffffffffffffffffffffffffffffffffffffff163373ffffffffffffffffffffffffffffffffffffffff167f8c5be1e5ebec7d5bd14f71427d1e84f3dd0314c0f7b2291e5b200ac8c7c3b9258460405161062b9190610ab1565b60405180910390a36001905092915050565b6001805461064a90610bed565b80601f016020809104026020016040519081016040528092919081815260200182805461067690610bed565b80156106c35780601f10610698576101008083540402835291602001916106c3565b820191906000526020600020905b8154815290600101906020018083116106a657829003601f168201915b505050505081565b6000600460003373ffffffffffffffffffffffffffffffffffffffff1673ffffffffffffffffffffffffffffffffffffffff1681526020019081526020016000205482111561074f576040517f08c379a000000000000000000000000000000000000000000000000000000000815260040161074690610a51565b60405180910390fd5b81600460003373ffffffffffffffffffffffffffffffffffffffff1673ffffffffffffffffffffffffffffffffffffffff168152602001908152602001600020600082825461079e9190610b3e565b9250508190555081600460008573ffffffffffffffffffffffffffffffffffffffff1673ffffffffffffffffffffffffffffffffffffffff16815260200190815260200160002060008282546107f49190610ae8565b925050819055508273ffffffffffffffffffffffffffffffffffffffff163373ffffffffffffffffffffffffffffffffffffffff167fddf252ad1be2c89b69c2b068fc378daa952ba7f163c4a11628f55a4df523b3ef846040516108589190610ab1565b60405180910390a36001905092915050565b60008135905061087981610d34565b92915050565b60008135905061088e81610d4b565b92915050565b6000602082840312156108aa576108a9610c7d565b5b60006108b88482850161086a565b91505092915050565b6000806000606084860312156108da576108d9610c7d565b5b60006108e88682870161086a565b93505060206108f98682870161086a565b925050604061090a8682870161087f565b9150509250925092565b6000806040838503121561092b5761092a610c7d565b5b60006109398582860161086a565b925050602061094a8582860161087f565b9150509250929050565b61095d81610b84565b82525050565b600061096e82610acc565b6109788185610ad7565b9350610988818560208601610bba565b61099181610c82565b840191505092915050565b60006109a9601f83610ad7565b91506109b482610c93565b602082019050919050565b60006109cc602b83610ad7565b91506109d782610cbc565b604082019050919050565b60006109ef601e83610ad7565b91506109fa82610d0b565b602082019050919050565b610a0e81610bb0565b82525050565b6000602082019050610a296000830184610954565b92915050565b60006020820190508181036000830152610a498184610963565b905092915050565b60006020820190508181036000830152610a6a8161099c565b9050919050565b60006020820190508181036000830152610a8a816109bf565b9050919050565b60006020820190508181036000830152610aaa816109e2565b9050919050565b6000602082019050610ac66000830184610a05565b92915050565b600081519050919050565b600082825260208201905092915050565b6000610af382610bb0565b9150610afe83610bb0565b9250827fffffffffffffffffffffffffffffffffffffffffffffffffffffffffffffffff03821115610b3357610b32610c1f565b5b828201905092915050565b6000610b4982610bb0565b9150610b5483610bb0565b925082821015610b6757610b66610c1f565b5b828203905092915050565b6000610b7d82610b90565b9050919050565b60008115159050919050565b600073ffffffffffffffffffffffffffffffffffffffff82169050919050565b6000819050919050565b60005b83811015610bd8578082015181840152602081019050610bbd565b83811115610be7576000848401525b50505050565b60006002820490506001821680610c0557607f821691505b60208210811415610c1957610c18610c4e565b5b50919050565b7f4e487b7100000000000000000000000000000000000000000000000000000000600052601160045260246000fd5b7f4e487b7100000000000000000000000000000000000000000000000000000000600052602260045260246000fd5b600080fd5b6000601f19601f8301169050919050565b7f4e6f7420656e6f7567682062616c616e636520746f207472616e736665722e00600082015250565b7f4e6f7420656e6f7567682062616c616e636520746f207472616e73666572206f60008201527f7220617070726f7665642e000000000000000000000000000000000000000000602082015250565b7f4e6f7420656e6f7567682062616c616e636520746f20617070726f76652e0000600082015250565b610d3d81610b72565b8114610d4857600080fd5b50565b610d5481610bb0565b8114610d5f57600080fd5b5056fea26469706673582212205799bfeee02e8ed6d9791f893797d59d26dbd941a86f0c58bd91bc56fdb4e47164736f6c63430008070033",
  "immutableReferences": {},
  "source": "// SPDX-License-Identifier: MIT\npragma solidity ^0.8.4;\n\ncontract RWD {\n    string public name = \"Reward Token\";\n    string public symbol = \"RWD\";\n    uint256 totalSuply = 100000000000000000000000000; // 1 milion tokens\n    uint8 decimals = 18;\n\n    // map bor account balance\n    mapping(address => uint256) public balanceOf;\n    // map for approval\n    mapping(address => mapping(address => uint256)) private _allowances;\n\n    // events\n    event Transfer(address indexed _from, address indexed _t0, uint256 _value);\n    event Approval(address indexed _owner, address indexed _spender, uint256 _value);\n\n    constructor() {\n        balanceOf[msg.sender] = totalSuply;\n    }\n\n    // transfer the Tether token from msg.sender to other account\n    function transfer(address _to, uint256 _value) public returns (bool) {\n        require(_value <= balanceOf[msg.sender], \"Not enough balance to transfer.\");\n        balanceOf[msg.sender] -= _value;\n        balanceOf[_to] += _value;\n        emit Transfer(msg.sender, _to, _value);\n        return true;\n    }\n\n    // approve the other account to transfer some tokens\n    function approval(address _spender, uint256 _token) public returns (bool success) {\n        require(_token <= balanceOf[msg.sender], \"Not enough balance to approve.\");\n        _allowances[msg.sender][_spender] = _token;\n        emit Approval(msg.sender, _spender, _token);\n        return true;\n    }\n\n    // approval account transfer Tether token from owner to other account\n    function transferFrom(address _from, address _to, uint256 _token) public returns (bool success) {\n        uint256 allowance = _allowances[_from][msg.sender];\n        require(balanceOf[_from] >= _token && allowance >= _token, \"Not enough balance to transfer or approved.\");\n        balanceOf[_to] += _token;\n        balanceOf[_from] -= _token;\n        _allowances[_from][msg.sender] -= _token;\n        emit Transfer(_from, _to, _token);\n        return true;\n    }\n}",
  "sourcePath": "/home/abdullah/ethereum/yield-farming-ethereum/defi-staking-app/src/contracts/RWD.sol",
  "compiler": {
    "name": "solc",
    "version": "0.8.7+commit.e28d00a7.Emscripten.clang"
  },
  "schemaVersion": "3.4.11",
  "updatedAt": "2022-12-01T13:01:06.919Z",
  "networkType": "ethereum",
  "devdoc": {
    "kind": "dev",
    "methods": {},
    "version": 1
  },
  "userdoc": {
    "kind": "user",
    "methods": {},
    "version": 1
  }
}